:100000000C946E010C9496010C9496010C9496013C
:100010000C9496010C9496010C9496010C94960104
:100020000C9496010C9496010C94550F0C94E70DCA
:100030000C9496010C9496010C9496010C949601E4
:100040000C9496010C9496010C9496010C949601D4
:100050000C9496010C9496010C9496010C94100744
:100060000C9496010C9496010C9496010C949601B4
:100070000C9496010C9496010C9496010C949601A4
:100080000C9496010C9496010C9496010C94960194
:100090000C9496010C9496010C9496010C94960184
:1000A0000C9496010C9496010C9496013C083F0820
:1000B0002E083208380860086008600843084708BE
:1000C0004B085108550860085B08005EBCE2613FC0
:1000D000DD83C29C7E20A3FD1F419DC3217FFCA226
:1000E000401E5F01E3BD3E6082DC237D9FC1421C58
:1000F000FEA0E1BF5D0380DE3C62BEE0025CDF810A
:10010000633D7C22C09E1D43A1FF4618FAA42779B7
:100110009BC584DA3866E5BB5907DB856739BAE4E5
:1001200006581947A5FB7826C49A653BD987045A17
:10013000B8E6A7F91B45C6987A24F8A6441A99C7C9
:10014000257B3A6486D85B05E7B98CD2306EEDB377
:10015000510F4E10F2AC2F7193CD114FADF3702EA5
:10016000CC92D38D6F31B2EC0E50AFF1134DCE90D7
:10017000722C6D33D18F0C52B0EE326C8ED0530D89
:10018000EFB1F0AE4C1291CF2D73CA947628ABF537
:1001900017490856B4EA6937D58B5709EBB5366865
:1001A0008AD495CB2977F4AA4816E9B7550B88D697
:1001B000346A2B7597C94A14F6A8742AC896154B49
:1001C000A9F7B6E80A54D7896B3500000002000988
:1001D0000F0000030401000C0000000000000000FC
:1001E0000000000000000000000408020110408030
:1001F000401020408040800802040180402010020E
:10020000011080102040402004040404040304056D
:1002100002020202040302020202060606060606A3
:100220000404020202040400000000230026002946
:10023000002C002F0000000000250028002B002EBD
:1002400000310000000000240027002A002D0030AB
:1002500000080B0002020201000904000001020272
:1002600000000524001001052401010104240206F8
:100270000524060001070581031000400904010060
:10028000020A000000070502024000000705830281
:1002900040000012010002EF0201404123368000BD
:1002A0000101020301120100020000004041233657
:1002B0008000010102030141726475696E6F204C78
:1002C0004C430041726475696E6F204C656F6E61BE
:1002D00072646F00040309040A05E00911241FBEBB
:1002E000CFEFDAE0DEBFCDBF11E0A0E0B1E0E8EC97
:1002F000F5E202C005900D92A633B107D9F721E0CF
:10030000A6E3B1E001C01D92A43FB207E1F712E0FD
:10031000CCEDD2E004C02297FE010E94DE12C83D5F
:10032000D107C9F70E94EC0F0C94E2120C94000064
:1003300061E08DE00E94610860E08DE00E949A0813
:1003400060E088E00E94610840E855E260E070E00B
:100350008DE891E00E94DA0986E791E00E9432067A
:100360000E945A0760937201709373018093740125
:100370009093750108954F925F926F927F928F9242
:100380009F92AF92BF92CF92DF92EF92FF920F9324
:100390001F93CF93DF9300D000D0CDB7DEB70E947C
:1003A0005A07C0907201D0907301E0907401F090F0
:1003B00075016C157D058E059F0528F09B012C1994
:1003C0003D09690104C0C094D094C60ED71E609345
:1003D0007201709373018093740190937501809101
:1003E0006C0190916D01A0916E01B0916F01A60119
:1003F00060E070E088248A94982CA82CB12C950198
:100400008401041B150B260B370B80179107A207DD
:10041000B30748F080926C0190926D01A0926E013A
:10042000B0926F010CC0840F951FA61FB71F809359
:100430006C0190936D01A0936E01B0936F01809158
:100440006C0190916D01A0916E01B0916F01813AA4
:100450009B4BAD40B10508F49FC060913A0170918B
:100460003B016115710521F180E090E00E949D1132
:100470009B01AC0160913C0170913D0180913E0176
:1004800090913F010E9404116093360170933701EF
:10049000809338019093390110923C0110923D01F4
:1004A00010923E0110923F0110923B0110923A01CE
:1004B00023E030E040E050E0BA018DE891E00E9496
:1004C000A40B63E171E08DE891E00E94130A23E040
:1004D00030E040E050E0BA018DE891E00E94A40BCA
:1004E00063E171E08DE891E00E94130A40913601CA
:1004F00050913701609138017091390122E030E06C
:100500008DE891E00E94A40B63E171E08DE891E039
:100510000E94130A26E030E040E050E0BA018DE886
:1005200091E00E94A40B63E171E08DE891E00E94EC
:10053000130A409144015091450160914601709128
:10054000470121E030E08DE891E00E94A40B63E1D7
:1005500071E08DE891E00E94130A409148015091AA
:10056000490160914A0170914B0121E030E08DE832
:1005700091E00E94A40B8DE891E00E941C0A109269
:100580006C0110926D0110926E0110926F01109229
:1005900071011092700105C188E00E94D008892B7A
:1005A00009F0F5C061E08DE00E949A088091700129
:1005B000909171018C0D9D1D90937101809370013C
:1005C0008436910508F4EDC080916B018111E9C07A
:1005D00060913A0170913B016115710521F180E054
:1005E00090E00E949D119B01AC0160913C017091D3
:1005F0003D0180913E0190913F010E940411609362
:10060000360170933701809338019093390110922D
:100610003C0110923D0110923E0110923F01109258
:100620003B0110923A0160916C0170916D018091D3
:100630006E0190916F010E949D1120E030E04AE729
:1006400054E40E9404112B013C019B01AC0160E0C9
:1006500070E080E09FE30E94041169837A838B83BA
:100660009C832BE33AE84FE75FE30E94531222EFAB
:1006700032ED45E850E40E9453122091360130914A
:10068000370140913801509139010E9453124B01BA
:100690005C0123E030E0AB01BC018DE891E00E94F9
:1006A000A40B63E171E08DE891E00E94130A23E05E
:1006B00030E049815A816B817C818DE891E00E9414
:1006C000A40B63E171E08DE891E00E94130A409170
:1006D000360150913701609138017091390122E063
:1006E00030E08DE891E00E94A40B63E171E08DE8B9
:1006F00091E00E94130AA3019201C501B4010E9476
:10070000531220E030E041E655E40E940411AB01B1
:10071000BC0126E030E08DE891E00E94A40B63E18B
:1007200071E08DE891E00E94130A409144015091DC
:100730004501609146017091470121E030E08DE86C
:1007400091E00E94A40B63E171E08DE891E00E94CA
:10075000130A409148015091490160914A017091FA
:100760004B0121E030E08DE891E00E94A40B8DE880
:1007700091E00E941C0A10926C0110926D0110927F
:100780006E0110926F0181E080936B010AC060E0FE
:100790008DE00E949A0810927101109270011092DF
:1007A0006B018091420190914301909341018093AC
:1007B00040018330910509F469C0CCF48130910582
:1007C00001F1029709F00BC186E791E00E940F0545
:1007D0006091580138E0639FB0011124675A7E4F41
:1007E00086E791E00E940A0641E064E476C0843026
:1007F000910509F460C0059709F0F1C00CE411E01F
:1008000076C06091580188E0689FB0011124675A52
:100810007E4FFB0180818832B1F141E086E791E0B3
:100820000E946706811118C086E791E00F900F9033
:100830000F900F90DF91CF911F910F91FF90EF904C
:10084000DF90CF90BF90AF909F908F907F906F90F0
:100850005F904F900C94320680915801F8E08F9F82
:10086000C001112467E0875A9E4F0E940407E0915F
:10087000580128E0E29FF0011124E75AFE4F9781CA
:100880008913B3C02EC082E090E0ABC080916901B3
:1008900090916A018C0D9D1D90936A01809369016E
:1008A0008E3E924008F4A1C010926A011092690134
:1008B00084E090E096C086E791E00E940F05609189
:1008C0005801F8E06F9FB0011124675A7E4F86E708
:1008D00091E00E940A0640E06EEB86E791E00E94FC
:1008E000AC05809142019091430101967AC086E760
:1008F00091E00E94EE05F80181938F01F1E005354A
:100900001F07A9F7A0905801B12C8501000F111FF6
:10091000000F111F0C5B1E4F60914D0170E0762F90
:10092000662780914C01680F711D882777FD80959F
:10093000982F0E949F1120E030E040E85DE30E9484
:100940005312F8016083718382839383209148015D
:100950003091490140914A0150914B01609144010D
:100960007091450180914601909147010E949B1032
:100970006B017C0120E030E0A9010E944F12A70129
:10098000960118160CF05058209336013093370119
:10099000409338015093390160913C0170913D01C1
:1009A00080913E0190913F010E949C1060933C0118
:1009B00070933D0180933E0190933F0180913A01F5
:1009C00090913B01019690933B0180933A01FFEF98
:1009D000AF1ABF0A21E0A222BB24A092580181E0F5
:1009E00090E090934301809342010F900F900F90FD
:1009F0000F90DF91CF911F910F91FF90EF90DF90BB
:100A0000CF90BF90AF909F908F907F906F905F90AE
:100A10004F9008956AE086E791E00C944406FF92B7
:100A20000F931F93CF93DF93FC010081C181D2818B
:100A3000F8948981F02EF0948F21898378941DE7B2
:100A4000115029F182E090E00E94C3078881802341
:100A5000B9F3F8948A818F218A838981802B8983D5
:100A6000789480EE91E00E94C307F89489818F21E9
:100A7000898386E490E00E94C3078881802311E087
:100A800009F010E078948AE991E00E94C307812F71
:100A9000DF91CF911F910F91FF9008951F93CF93F6
:100AA000DF93FC011081C181D281912F909560FF6D
:100AB00012C0F8948A8189238A838981812B898352
:100AC0008AE090E00E94C3078A81812B8A83789410
:100AD00087E390E011C0F8948A8189238A83898111
:100AE000812B898381E490E00E94C3078A81812B56
:100AF0008A83789485E090E0DF91CF911F910C94E8
:100B0000C3070F931F93CF93DF93FC011081C18123
:100B1000D281F8948981812B89838A81012F009564
:100B200080238A8383E090E00E94C3078981802329
:100B300089838AE090E00E94C307C881789485E3A6
:100B400090E00E94C3071C2381E009F480E0DF915C
:100B5000CF911F910F910895CF92DF92EF92FF9264
:100B60000F931F93CF93DF931F92CDB7DEB76C0126
:100B7000E62E08E010E0FF24F39461E09F2D9E2113
:100B800009F460E0C60149830E944E05FF0C015044
:100B9000110949810115110581F7411115C0F8941A
:100BA000D6011196ED91FC91129791818C918095CF
:100BB000892381831196ED91FC91129792818C91FA
:100BC00080958923828378940F90DF91CF911F9134
:100BD0000F91FF90EF90DF90CF900895EF92FF92EA
:100BE0000F931F93CF93DF938C01C8E0D0E0F12CDB
:100BF000EE24E394C8010E9481058111FE28EE0CC9
:100C00002197C1F78F2DDF91CF911F910F91FF9009
:100C1000EF900895CF92DF92FF920F931F93CF939F
:100C2000DF931F92CDB7DEB78C01F62E40E065E56D
:100C300079830E94AC05CF2C7981D72E88E0F82EDD
:100C4000F60161916F0140E0C8010E94AC05FA9481
:100C5000B9F70F90DF91CF911F910F91FF90DF9027
:100C6000CF900895FC0113861586148627E030E0A6
:100C7000DF01A20FB31F13961C922115310519F045
:100C800021503109F5CF08951F93CF93DF93EC01E5
:100C9000162F60E0812F0E946108612F70E0FB0138
:100CA000E751FE4FE491E883FB01E85FFD4FE491DB
:100CB000F0E0EE0FFF1FE95DFD4F859194919A835F
:100CC0008983CE01DF91CF911F910C943206AF92B0
:100CD000BF92CF92DF92EF92FF920F931F93CF9329
:100CE000DF931F92CDB7DEB75C01D62EE72EFC0155
:100CF0008585811164C0C50149830E940F05498122
:100D0000811105C0F50113861586148671C0442330
:100D100019F040E060EF02C040E06CEEC5010E94B7
:100D2000AC0501E0F12CC12C11E0C5010E94810548
:100D3000682FC50169830E9481056981613019F4BA
:100D40008130B9F433C02F2D30E068131BC0F5019A
:100D50008385181730F4E20FF31F8381802349F451
:100D600002C0181731F060E0193058F4F50114870B
:100D700008C0F501EF0DF11D8381802B838361E0B5
:100D800009C0C12EF501E20FF31F8381902F9095CA
:100D900089238383C5010E944E051F5F000F11F454
:100DA000F39401E0F7E0FF1508F0BFCF113438F0FD
:100DB000F501C386C11009C081E0858706C0F50131
:100DC00013861586148680E013C0F501838188237D
:100DD000B1F3ED2DFE2D80E090E0D501A80FB91FF5
:100DE00013962C912193019688309105B1F781E0FB
:100DF0000F90DF91CF911F910F91FF90EF90DF90B7
:100E0000CF90BF90AF900895DC0180E0615038F042
:100E1000ED91E827F0E0E653FF4F8491F7CF089576
:100E20001F920F920FB60F9211242F933F938F931F
:100E30009F93AF93BF938091850190918601A0917C
:100E40008701B09188013091840123E0230F2D3771
:100E500020F40196A11DB11D05C026E8230F0296BE
:100E6000A11DB11D2093840180938501909386017B
:100E7000A0938701B09388018091890190918A01A4
:100E8000A0918B01B0918C010196A11DB11D8093A1
:100E9000890190938A01A0938B01B0938C01BF913B
:100EA000AF919F918F913F912F910F900FBE0F9017
:100EB0001F9018952FB7F894609185017091860165
:100EC00080918701909188012FBF08953FB7F894D2
:100ED0008091890190918A01A0918B01B0918C0140
:100EE00026B5A89B05C02F3F19F00196A11DB11D85
:100EF0003FBF6627782F892F9A2F620F711D811DA2
:100F0000911D42E0660F771F881F991F4A95D1F700
:100F100008958F929F92AF92BF92CF92DF92EF92FD
:100F2000FF926B017C010E9466074B015C01C114BA
:100F3000D104E104F104F1F00E94FF0F0E94660762
:100F4000681979098A099B09683E734081059105F2
:100F500070F321E0C21AD108E108F10888EE880E8A
:100F600083E0981EA11CB11CC114D104E104F1045A
:100F700029F7DDCFFF90EF90DF90CF90BF90AF903B
:100F80009F908F9008958230910538F0880F991FB7
:100F9000880F991F05970197F1F70895789484B504
:100FA000826084BD84B5816084BD85B5826085BD65
:100FB00085B5816085BDEEE6F0E08081816080834B
:100FC000E1E8F0E01082808182608083808181602E
:100FD0008083E0E8F0E0808181608083E1E9F0E0F7
:100FE000808182608083808181608083E0E9F0E09D
:100FF000808181608083E1ECF0E080818460808387
:10100000808182608083808181608083E3ECF0E076
:10101000808181608083E0ECF0E080818260808369
:10102000E2ECF0E0808181608083EAE7F0E080819B
:1010300084608083808182608083808181608083FE
:10104000808180688083089590E0FC013197EF30C3
:10105000F105B0F5EA5AFF4F0C94DC128091800044
:101060008F7703C0809180008F7D809380000895EA
:1010700080918000877FF9CF84B58F7702C084B5D7
:101080008F7D84BD0895809190008F7707C08091F7
:1010900090008F7D03C080919000877F80939000A7
:1010A00008958091C0008F7703C08091C0008F7D2C
:1010B0008093C00008958091C200877F8093C20012
:1010C0000895CF93DF9390E0FC01E751FE4F249108
:1010D000FC01E85FFD4F8491882349F190E0880F7F
:1010E000991FFC01ED5BFD4FA591B4918B5C9D4F69
:1010F000FC01C591D4919FB7611108C0F8948C91FF
:10110000209582238C93888182230AC0623051F417
:10111000F8948C91322F309583238C938881822B85
:10112000888304C0F8948C91822B8C939FBFDF91AD
:10113000CF9108950F931F93CF93DF931F92CDB755
:10114000DEB7282F30E0F901E653FE4F8491F90114
:10115000E751FE4F1491F901E85FFD4F0491002320
:10116000C9F0882321F069830E9424086981E02F57
:10117000F0E0EE0FFF1FEB5CFD4FA591B4919FB720
:10118000F8948C91611103C01095812301C0812BCB
:101190008C939FBF0F90DF91CF911F910F91089576
:1011A000CF93DF93282F30E0F901E653FE4F84916F
:1011B000F901E751FE4FD491F901E85FFD4FC49169
:1011C000CC2391F081110E942408EC2FF0E0EE0F67
:1011D000FF1FE95DFD4FA591B4912C912D2381E076
:1011E00090E021F480E002C080E090E0DF91CF91B8
:1011F0000895CF93DF931F92CDB7DEB76983DC01EB
:10120000ED91FC910280F381E02D41E050E0BE01C0
:101210006F5F7F4F09950F90DF91CF910895CF9326
:10122000DF93EC018C859D8597FF05C082E00E94CD
:10123000B70C9D878C878C859D85DF91CF91089514
:1012400083E00C944B0FFC018485958597FD06C0C7
:1012500082E00E945F0C90E00196089582E00E9477
:101260005F0C90E00895FC018485958597FD05C08D
:101270002FEF3FEF35872487089582E00C94B70C59
:10128000CF93DF93EC0180910B01882331F083E051
:101290000E94E80C1816190634F081E090E09B8358
:1012A0008A8380E090E0DF91CF910895FC01208156
:1012B0002E5F208342E450E061E572E080E80C9408
:1012C000830DFC0121818081813A59F4213209F09A
:1012D0005CC047E050E064E071E080E00E94830D74
:1012E00067C0813209F051C0233289F4838190E0D4
:1012F000982F88273281832BA0E0B0E080930001F3
:1013000090930101A0930201B09303010FC020321A
:1013100039F467E070E084E091E00E94B40D0AC007
:10132000223221F4828180930B0104C02D7F203270
:1013300009F03EC08091040190910501A091060141
:10134000B0910701803B9440A105B10501F5809162
:101350000B0180FD1CC080910008909101089093C2
:10136000FF0A8093FE0A87E797E79093010880932E
:1013700000082BE088E190E00FB6F894A8958093E0
:1013800060000FBE2093600013C080E0089588E1E4
:101390000FB6F89480936000109260000FBEA8957D
:1013A0008091FE0A9091FF0A9093010880930008B3
:1013B00081E008952FEF3FEFFC01358724870895E2
:1013C0001092900110928F0188EE93E0A0E0B0E0BF
:1013D0008093910190939201A0939301B093940113
:1013E00089E191E090938E0180938D018FEF9FEFC3
:1013F00090939A018093990108956115710581F088
:10140000DB010D900020E9F7AD0141505109461B69
:10141000570BDC01ED91FC910280F381E02D0994E2
:1014200080E090E008950C94FD09DC01ED91FC91C1
:101430000190F081E02D099465E271E00C94FD09C2
:101440008F929F92AF92BF92DF92EF92FF920F9393
:101450001F93CF93DF93CDB7DEB7A1970FB6F89464
:10146000DEBF0FBECDBF7C01F42FD52ECB0119A25C
:10147000223008F42AE08E010F5D1F4F822E912C3E
:10148000A12CB12C6F2F7D2DA50194010E94BA12C1
:10149000F22FD32ECA01015011096A3014F4E0E38F
:1014A00001C0E7E3E60FD801EC93232B242B252B77
:1014B00049F7B801C7010E94FD09A1960FB6F8943B
:1014C000DEBF0FBECDBFDF91CF911F910F91FF9077
:1014D000EF90DF90BF90AF909F908F900895CF9244
:1014E000DF92EF92FF920F931F93CF93DF93EC0164
:1014F0006A017B012115310579F4E881F9810190B8
:10150000F081E02D642FDF91CF911F910F91FF901B
:10151000EF90DF90CF9009942A303105E9F477FFFE
:101520001AC06DE20E94150A8C0144275527BA01A2
:101530004C195D096E097F092AE0CE010E94200A3C
:10154000800F911FDF91CF911F910F91FF90EF902E
:10155000DF90CF9008952AE0B701A601CE01DF9178
:10156000CF911F910F91FF90EF90DF90CF900C944F
:10157000200A4F925F926F927F928F929F92AF92CA
:10158000BF92CF92DF92EF92FF920F931F93CF9370
:10159000DF93EC016A017B01B22E9A01AB01C70116
:1015A000B6010E94B612882319F068E271E027C0E4
:1015B00026013701E89477F82FEF3FEF4FE75FE719
:1015C000C301B2010E94B61281110DC02FEF3FEF8F
:1015D0004FE75FE7C301B2010E94001118161CF427
:1015E0006CE271E00CC02FEF3FEF4FE75FE4C70103
:1015F000B6010E944F121816ACF460E371E0CE0100
:10160000DF91CF911F910F91FF90EF90DF90CF90DE
:10161000BF90AF909F908F907F906F905F904F9012
:101620000C94FD092FEF3FEF4FE75FECC701B601C8
:101630000E94001187FDE1CF20E030E0A901C70141
:10164000B6010E94001187FF0AC06DE2CE010E9420
:10165000150A8C01F7FAF094F7F8F09402C000E054
:1016600010E0A12C60E070E080E09FE3AB1441F05B
:1016700020E030E040E251E40E940411A394F6CF50
:101680009B01AC01C701B6010E949C106B017C015B
:101690000E9471112B013C010E949D119B01AC0124
:1016A000C701B6010E949B106B017C012AE0B301C7
:1016B000A201CE010E94200A080F191FBB2039F099
:1016C00064E371E0CE010E94FD09080F191F7B2C15
:1016D000772041F120E030E040E251E4C701B6015B
:1016E0000E9453126B017C010E946C114B01AA24D1
:1016F00097FCA094BA2C2AE030E0B501A401CE01F9
:101700000E946F0A080F191FC501B4010E949F11A2
:101710009B01AC01C701B6010E949B106B017C01CB
:101720007A94D6CFC801DF91CF911F910F91FF908E
:10173000EF90DF90CF90BF90AF909F908F907F9071
:101740006F905F904F9008950C94B90A615030F0FB
:101750002091F100FC0120830196F8CF289884E6BF
:101760008093E60108954091E1015091E2012091BA
:10177000DF013091E00142175307B4F49091E80083
:101780009570E1F39091E80092FD19C08093F1000B
:101790008091E1019091E20101968F739927892B45
:1017A00019F48EEF8093E8008091E1019091E201BD
:1017B00001969093E2018093E10181E0089580E039
:1017C0000895CF92DF92EF92FF920F931F93CF93E2
:1017D000DF931F92CDB7DEB7082F162FF42E862F7A
:1017E000880F8E5F99830E94B30B83E00E94B30B36
:1017F000E02EC02E9981D92E8C2D8E19811798F448
:10180000F601F7FE02C0849101C080810E94B30BF3
:10181000082F80E00E94B30B8023FFEFCF1ADF0A6E
:101820008111EACF01C081E00F90DF91CF911F912C
:101830000F91FF90EF90DF90CF9008958091D700A7
:1018400081608093D70080EA8093D80089B5806159
:1018500089BD89B5826089BD09B400FEFDCF61E014
:1018600070E080E090E00E9489078091D8008F7C32
:1018700080618093D8008091E000807F8093E000B9
:101880000895CF93DF931F92CDB7DEB71982CE01B3
:1018900001960E9456090E948710BE016F5F7F4F1C
:1018A0000E94001089810F90DF91CF9108952FB78A
:1018B000FC012083F89467706093E9000895CF934A
:1018C000DF931F92CDB7DEB7682FCE0101960E943D
:1018D000570C8091F20099819FBF0F90DF91CF91BB
:1018E0000895FF920F931F93CF93DF9300D0CDB74E
:1018F000DEB7F62E8A019091E501992311F057FF8A
:1019000003C08FEF9FEF2BC0682FCE0101967A8323
:101910000E94570C8091F20090E0A8017A81801714
:1019200091070CF4AC01EF2DF72FF40E84E6FE16B0
:1019300039F028988093E6019091F1009193F7CFC8
:101940004115510521F08091F200882321F0898111
:101950008FBFCA0104C08BE68093E800F8CF0F90D8
:101960000F90DF91CF911F910F91FF900895CF932A
:10197000DF931F92CDB7DEB741E050E0BE016F5F4D
:101980007F4F0E94710C019719F4898190E002C089
:101990008FEF9FEF0F90DF91CF910895CF93DF935B
:1019A0001F92CDB7DEB7682FCE0101960E94570C6B
:1019B0009091E800892F807295FF04C09091F20009
:1019C00080E4891B99819FBF0F90DF91CF9108958B
:1019D0006F927F928F929F92AF92BF92CF92DF923F
:1019E000EF92FF920F931F93CF93DF931F92CDB788
:1019F000DEB7782E7B01C42EB52E8091E5018823B9
:101A000069F0042F152F8AEFD82E872D8072982E1B
:101A10009AE3A92E872D8074882E11C08FEF9FEF37
:101A200057C0872D0E94CE0C682E81110CC0DA940D
:101A3000A9F361E070E080E090E00E948907011561
:101A4000110579F73BC0282F30E0021713070CF47B
:101A5000602E672DCE0101960E94570C8091E80000
:101A600085FF29C0262D30E0021B130B992039F089
:101A70006A948FEF6816B1F01092F100F9CFF70178
:101A8000862D77FE07C0815058F094919093F10015
:101A90003196F9CF815020F091919093F100FACFD7
:101AA000E20EF31E8091E80085FF0FC001151105BD
:101AB00011F481100AC089818FBFC1CF5D9884E67F
:101AC0008093E7018C2D9B2D03C0A092E800F3CFFB
:101AD0000F90DF91CF911F910F91FF90EF90DF90CA
:101AE000CF90BF90AF909F908F907F906F90089510
:101AF0001092E9001092E2011092E1019093E0014E
:101B00008093DF010895CF92DF92FF920F931F938E
:101B1000CF93DF9300D0CDB7DEB7F82E8A016B01EB
:101B200001151105B1F0F601F7FE02C0849101C064
:101B3000808149835A830E94B30B01501109FFEF42
:101B4000CF1ADF0A49815A818111EACF8FEF9FEFC7
:101B500001C0CA010F900F90DF91CF911F910F919B
:101B6000FF90DF90CF900895BF92CF92DF92EF92D7
:101B7000FF920F931F93CF93DF936C018B01EB01C7
:101B80003BEFB32E2097C1F07E01C134D1051CF08C
:101B900020E4E22EF12C8091E80082FFFCCFC80106
:101BA0008C1B9D0B6E2D8C0D9D1D0E94A60BB09263
:101BB000E800CE19DF09E6CFC801DF91CF911F9170
:101BC0000F91FF90EF90DF90CF90BF9008951F92FC
:101BD0000F920FB60F921124DF92EF92FF920F93A4
:101BE0001F932F933F934F935F936F937F938F93A5
:101BF0009F93AF93BF93EF93FF93CF93DF93CDB7B3
:101C0000DEB76C97DEBFCDBF1092E9008091E8008F
:101C100083FF23C168E0CE0145960E94A60B82EFA8
:101C20008093E8003D8937FF05C08091E80080FF80
:101C3000FCCF03C08EEF8093E800832F807609F0FD
:101C4000F0C02E894F89D88C21110CC0303829F46E
:101C50008091E4018093F10002C01092F100109293
:101C6000F100F4C0842F90E09D29213049F4311116
:101C7000EDC0019709F0EAC08091E4018D7F0AC0B0
:101C8000233059F43111E2C0019709F0DFC080918F
:101C9000E40182608093E401D9C0253041F4809151
:101CA000E80080FFFCCF40684093E300CFC02630BF
:101CB00009F08DC0EB8CFC8C22E0D2122CC080E0AD
:101CC00090E00E94780D0E94410C99E08E010F5F18
:101CD0001F4FF801292F11922A95E9F79983DA828B
:101CE00091E09E8390EA98879AEF99872091E1018D
:101CF0003091E201275F3F4F3C832B838D83C701E7
:101D00000E94780D49E050E0B80180E00E94830D08
:101D10000E94410C9BC0C7010E94780D0E94871051
:101D2000BE016B5E7F4F0E942910009719F00CF0E6
:101D30008DC090C081E0D8120EC08B8D9C8D08970D
:101D400019F481E08093DE018091DE0181112FC0C2
:101D500065EA72E031C0E3E0DE127CC08F8988233F
:101D600049F1823029F440E860E183EC92E01CC044
:101D7000813029F440E86BE087EB92E015C08330B6
:101D800009F068C00E9487108E010F5F1F4FB801D5
:101D90000E944810F80101900020E9F73197E01BFC
:101DA000F10B40E06E2FC8010E94E10B4DC063E9CA
:101DB00072E002C064ED72E06115710509F44AC079
:101DC000FB01449150E080E80E94830D3FC0273022
:101DD00009F440C0283021F481E08093F10036C03E
:101DE0002930A1F53370B1F5EDE0F1E081E021E0BB
:101DF00036E39081992361F08093E9002093EB0012
:101E000091919093EC003093ED008F5F873089F7CC
:101E10008EE78093EA001092EA008F898093E501B3
:101E200015C08B8D9C8D0E94780D898D811105C008
:101E3000CE0145960E94610907C00E948710BE012D
:101E40006B5E7F4F0E946710882321F08EEF809396
:101E5000E80003C081E28093EB006C960FB6F89423
:101E6000DEBF0FBECDBFDF91CF91FF91EF91BF914C
:101E7000AF919F918F917F916F915F914F913F9122
:101E80002F911F910F91FF90EF90DF900F900FBE59
:101E90000F901F9018958093E9008091F20088239D
:101EA00019F08AE38093E80008951F920F920FB60D
:101EB0000F9211242F933F934F935F936F937F93D0
:101EC0008F939F93AF93BF93CF93EF93FF93C09163
:101ED000E1008091E100837F8093E1008093E10045
:101EE000C3FF0FC01092E90081E08093EB001092D5
:101EF000EC0082E38093ED001092E50188E080938E
:101F0000F000C2FF19C083E00E944B0F8091E701EF
:101F1000882339F08091E70181508093E70188237D
:101F200089F18091E601882339F08091E6018150A2
:101F30008093E601882341F1C4FF10C08091E20044
:101F40008E7E81608093E2008091E1008F7E80939D
:101F5000E1008091E3018E7E806111C0C0FF16C058
:101F60008091E2008E7E80618093E2008091E100AA
:101F70008E7E8093E1008091E3018E7E816080936C
:101F8000E30104C05D9ACDCF289AD6CFFF91EF919F
:101F9000CF91BF91AF919F918F917F916F915F9101
:101FA0004F913F912F910F900FBE0F901F9018955A
:101FB0001092E5011092E4011092E3010E941E0CC0
:101FC000E1EEF0E080818E7E80838DE08093E20000
:101FD000559A209A089508950E94CE070E94EB0F0B
:101FE0008DED91E00E94D80F0E949801C0E0D0E0F2
:101FF0000E94BB012097E1F30E940000F9CF0895F1
:10200000EF92FF920F931F93CF93DF937B01FC011D
:10201000C281D38100E010E0209781F0E881F9814E
:102020000280F381E02DB701CE01099597FD08C02C
:10203000080F191F0884D985C02DEECFC80102C032
:102040008FEF9FEFDF91CF911F910F91FF90EF9056
:1020500008950F931F93CF93DF938B01FC01C281EF
:10206000D381209771F0E881F9810480F581E02D1A
:10207000B801CE010995009731F40884D985C02DA7
:10208000F0CF80E090E0DF91CF911F910F91089504
:102090000F931F93CF93DF938B01FC01C281D381F8
:1020A000209771F0E881F9810680F781E02DB80171
:1020B000CE010995080F111D0884D985C02DF0CFD8
:1020C000F8011082DF91CF911F910F9108950F9326
:1020D0001F93CF93DF938B01FC01C281D3812097A3
:1020E00071F0E881F9810190F081E02DB801CE0115
:1020F0000995811106C00884D985C02DF0CF80E0F4
:1021000001C081E0DF91CF911F910F9108958091DF
:10211000EC0181110DC082E08093E80184E080939E
:10212000E9011092EB011092EA0181E08093EC0149
:1021300088EE91E008955058BB27AA270ED075C1AC
:1021400066D130F06BD120F031F49F3F11F41EF4D2
:102150005BC10EF4E095E7FB51C1E92F77D180F325
:10216000BA17620773078407950718F071F49EF594
:102170008FC10EF4E0950B2EBA2FA02D0B01B901E3
:1021800090010C01CA01A0011124FF27591B99F0ED
:10219000593F50F4503E68F11A16F040A22F232FF9
:1021A000342F4427585FF3CF469537952795A79549
:1021B000F0405395C9F77EF41F16BA0B620B730BF0
:1021C000840BBAF09150A1F0FF0FBB1F661F771F61
:1021D000881FC2F70EC0BA0F621F731F841F48F416
:1021E000879577956795B795F7959E3F08F0B3CF9C
:1021F0009395880F08F09927EE0F97958795089586
:10220000D9D008F481E008950CD00FC107D140F077
:10221000FED030F021F45F3F19F0F0C0511139C108
:10222000F3C014D198F39923C9F35523B1F3951B47
:10223000550BBB27AA2762177307840738F09F5FE7
:102240005F4F220F331F441FAA1FA9F333D00E2E56
:102250003AF0E0E830D091505040E695001CCAF7C3
:1022600029D0FE2F27D0660F771F881FBB1F261788
:1022700037074807AB07B0E809F0BB0B802DBF015B
:10228000FF2793585F4F2AF09E3F510568F0B6C074
:1022900000C15F3FECF3983EDCF386957795679538
:1022A000B795F7959F5FC9F7880F911D969587950C
:1022B00097F90895E1E0660F771F881FBB1F62172B
:1022C00073078407BA0720F0621B730B840BBA0BE9
:1022D000EE1F88F7E095089504D06894B111D9C035
:1022E0000895BCD088F09F5790F0B92F9927B75127
:1022F000A0F0D1F0660F771F881F991F1AF0BA95CA
:10230000C9F712C0B13081F0C3D0B1E00895C0C0A8
:10231000672F782F8827B85F39F0B93FCCF38695BF
:1023200077956795B395D9F73EF49095809570951C
:1023300061957F4F8F4F9F4F0895E89409C097FB99
:102340003EF490958095709561957F4F8F4F9F4F8C
:102350009923A9F0F92F96E9BB279395F6958795D0
:1023600077956795B795F111F8CFFAF4BB0F11F493
:1023700060FF1BC06F5F7F4F8F4F9F4F16C088233A
:1023800011F096E911C0772321F09EE8872F762F70
:1023900005C0662371F096E8862F70E060E02AF0B1
:1023A0009A95660F771F881FDAF7880F969587959D
:1023B00097F90895990F0008550FAA0BE0E8FEEF72
:1023C00016161706E807F907C0F012161306E407F9
:1023D000F50798F0621B730B840B950B39F40A26F2
:1023E00061F0232B242B252B21F408950A2609F4D0
:1023F000A140A6958FEF811D811D089597F99F67D4
:1024000080E870E060E008959FEF80EC089500247C
:102410000A941616170618060906089500240A9449
:1024200012161306140605060895092E0394000CCF
:1024300011F4882352F0BB0F40F4BF2B11F460FF5E
:1024400004C06F5F7F4F8F4F9F4F089557FD905887
:10245000440F551F59F05F3F71F04795880F97FB68
:10246000991F61F09F3F79F0879508951216130622
:102470001406551FF2CF4695F1DF08C01616170651
:102480001806991FF1CF8695710561050894089586
:10249000E894BB2766277727CB0197F908958ADF51
:1024A00008F48FEF08950BD0C0CFB1DF28F0B6DF6E
:1024B00018F0952309F0A2CFA7CF1124EACFC6DFE9
:1024C000A0F3959FD1F3950F50E0551F629FF00147
:1024D000729FBB27F00DB11D639FAA27F00DB11DA0
:1024E000AA1F649F6627B00DA11D661F829F222729
:1024F000B00DA11D621F739FB00DA11D621F839FB0
:10250000A00D611D221F749F3327A00D611D231F85
:10251000849F600D211D822F762F6A2F11249F57D3
:1025200050408AF0E1F088234AF0EE0FFF1FBB1FF6
:10253000661F771F881F91505040A9F79E3F510595
:1025400070F05CCFA6CF5F3FECF3983EDCF386954E
:1025500077956795B795F795E7959F5FC1F7FE2B40
:10256000880F911D9695879597F9089523DF880B1D
:10257000990B0895A1E21A2EAA1BBB1BFD010DC0E9
:10258000AA1FBB1FEE1FFF1FA217B307E407F50723
:1025900020F0A21BB30BE40BF50B661F771F881FFF
:1025A000991F1A9469F760957095809590959B0195
:1025B000AC01BD01CF010895EE0FFF1F0590F4910E
:0825C000E02D0994F894FFCF0F
:1025C800FFFFFFFF00E100000000000000C1808164
:1025D8000000002C0000000000F90840092309331E
:1025E800090F0920090D0A006E616E00696E660008
:0625F8006F7666002E0064
:00000001FF
