:100000000C94EF010C9417020C9417020C94170235
:100010000C9417020C9417020C9417020C941702FC
:100020000C9417020C9417020C94C60E0C94920DAB
:100030000C9417020C9417020C9417020C941702DC
:100040000C9417020C9417020C9417020C941702CC
:100050000C9417020C9417020C9417020C94B50719
:100060000C9417020C9417020C9417020C941702AC
:100070000C9417020C9417020C9417020C9417029C
:100080000C9417020C9417020C9417020C9417028C
:100090000C9417020C9417020C9417020C9417027C
:1000A0000C9417020C9417020C941702F806FB0626
:1000B000EA06EE06F4061C071C071C07FF060307EA
:1000C00007070D0711071C071707005EBCE2613F19
:1000D000DD83C29C7E20A3FD1F419DC3217FFCA226
:1000E000401E5F01E3BD3E6082DC237D9FC1421C58
:1000F000FEA0E1BF5D0380DE3C62BEE0025CDF810A
:10010000633D7C22C09E1D43A1FF4618FAA42779B7
:100110009BC584DA3866E5BB5907DB856739BAE4E5
:1001200006581947A5FB7826C49A653BD987045A17
:10013000B8E6A7F91B45C6987A24F8A6441A99C7C9
:10014000257B3A6486D85B05E7B98CD2306EEDB377
:10015000510F4E10F2AC2F7193CD114FADF3702EA5
:10016000CC92D38D6F31B2EC0E50AFF1134DCE90D7
:10017000722C6D33D18F0C52B0EE326C8ED0530D89
:10018000EFB1F0AE4C1291CF2D73CA947628ABF537
:1001900017490856B4EA6937D58B5709EBB5366865
:1001A0008AD495CB2977F4AA4816E9B7550B88D697
:1001B000346A2B7597C94A14F6A8742AC896154B49
:1001C000A9F7B6E80A54D7896B3500000002000988
:1001D0000F0000030401000C0000000000000000FC
:1001E00000000000000000000408020110408040F0
:1001F000102040804080080204018040201002014D
:10020000108010204040040404040403040502028A
:10021000020204030202020206060606060604049F
:1002200002020204000000002300260029002C0026
:100230002F0000000000250028002B002E003100B8
:1002400000000000240027002A002D003000080BC9
:100250000002020201000904000001020200000580
:1002600024001001052401010104240206052406CE
:1002700000010705810310004009040100020A0083
:10028000000007050202400000070583024000004D
:1002900000C18081C11201000202000040032A3621
:1002A0008000010102000112010002000000400371
:1002B0002A368000010102000141726475696E6F87
:1002C0002053726C0041726475696E6F204C656FCB
:1002D0006E6172646F0004030904000000000000F6
:1002E00000002A2B28000000000000000000000091
:1002F000000000000000000000002C9EB4A0A1A29D
:10030000A434A6A7A5AE362D3738271E1F202122DC
:1003100023242526B333B62EB7B89F8485868788D5
:10032000898A8B8C8D8E8F909192939495969798C5
:10033000999A9B9C9D2F3130A3AD35040506070883
:10034000090A0B0C0D0E0F101112131415161718A5
:10035000191A1B1C1DAFB1B0B5000904020001033E
:100360000000000921010100012265000705840346
:1003700040000105010902A1010901A10085010553
:1003800009190129031500250195037501810295BD
:1003900001750581030501093009310938158125E9
:1003A0007F750895038106C0C005010906A1018576
:1003B00002050719E029E715002501750195088157
:1003C00002950175088103950675081500256505D8
:1003D00007190029658100C0E104790B7010112410
:1003E0001FBECFEFDAE0DEBFCDBF11E0A0E0B1E08D
:1003F000ECE8F5E202C005900D92A833B107D9F7F9
:1004000021E0A8E3B1E001C01D92A53FB207E1F7EA
:1004100013E0CEEDD3E004C02297FE010E94C0128B
:10042000C83DD107C9F70E94A30A0C94C4120C94CA
:10043000000061E08DE00E941D0760E08DE00E94F9
:10044000560760E088E00E941D0740E855E260E042
:1004500070E08FE891E00E94730B88E791E00E94C2
:1004600009060E94FF0760937401709375018093E1
:1004700076019093770108954F925F926F927F92E9
:100480008F929F92AF92BF92CF92DF92EF92FF92A4
:100490000F931F93CF93DF9300D000D0CDB7DEB77B
:1004A0000E94FF07C0907401D0907501E090760122
:1004B000F09077016C157D058E059F0528F09B0156
:1004C0002C193D09690104C0C094D094C60ED71EF2
:1004D0006093740170937501809376019093770116
:1004E00080916E0190916F01A0917001B0917101A6
:1004F000A60160E070E088248A94982CA82CB12C86
:1005000095018401041B150B260B370B80179107EF
:10051000A207B30748F080926E0190926F01A092FB
:100520007001B09271010CC0840F951FA61FB71FF8
:1005300080936E0190936F01A0937001B09371014D
:1005400088E00E948C07892B09F0F1C061E08DE002
:100550000E94560780917201909173018C0D9D1D30
:1005600090937301809372018436910508F4F1C071
:1005700080916D018111EDC060913C0170913D0150
:100580006115710521F180E090E00E947F119B01CF
:10059000AC0160913E0170913F01809140019091CA
:1005A00041010E94E61060933801709339018093F5
:1005B0003A0190933B0110923E0110923F0110923C
:1005C00040011092410110923D0110923C01609156
:1005D0006E0170916F0180917001909171010E9484
:1005E0007F1120E030E04AE754E40E94E6102B013E
:1005F0003C019B01AC0160E070E080E09FE30E9461
:10060000E61069837A838B839C832BE33AE84FE778
:100610005FE30E94351222EF32ED45E850E40E947C
:100620003512209138013091390140913A015091B1
:100630003B010E9435124B015C0123E030E0AB012D
:10064000BC018FE891E00E94A00A6AE071E08FE8A7
:1006500091E00E94F50823E030E049815A816B81E6
:100660007C818FE891E00E94A00A6AE071E08FE847
:1006700091E00E94F5084091380150913901609154
:100680003A0170913B0122E030E08FE891E00E9456
:10069000A00A6AE071E08FE891E00E94F508A301EA
:1006A0009201C501B4010E94351220E030E041E61C
:1006B00055E40E94E610AB01BC0126E030E08FE873
:1006C00091E00E94A00A6AE071E08FE891E00E9448
:1006D000F5084091460150914701609148017091A1
:1006E000490121E030E08FE891E00E94A00A6AE031
:1006F00071E08FE891E00E94F50840914A01509125
:100700004B0160914C0170914D0121E030E08FE888
:1007100091E00E94A00A10926E0110926F01109257
:1007200070011092710181E080936D0112C060E050
:100730008DE00E94560780916D01882321F08FE89B
:1007400091E00E94FE0810927301109272011092C3
:100750006D018091440190914501909343018093F4
:1007600042018330910509F468C0CCF481309105D1
:1007700001F1029709F00AC188E791E00E94E604BE
:1007800060915A0138E0639FB0011124655A7E4F91
:1007900088E791E00E94E10541E064E475C084309F
:1007A000910509F45FC0059709F0F0C00EE411E06F
:1007B00075C060915A0138E0639FB0011124655AF9
:1007C0007E4FFB0180818832A9F188E791E00E9489
:1007D0003E06811118C088E791E00F900F900F90AE
:1007E0000F90DF91CF911F910F91FF90EF90DF90CD
:1007F000CF90BF90AF909F908F907F906F905F90C1
:100800004F900C94090680915A01F8E08F9FC00127
:10081000112467E0855A9E4F0E94D406E0915A0148
:1008200028E0E29FF0011124E55AFE4F97818913D9
:10083000B3C02EC082E090E0ABC080916B0190917C
:100840006C018C0D9D1D90936C0180936B018E3E0D
:10085000924008F4A1C010926C0110926B0184E0E8
:1008600090E096C088E791E00E94E60460915A010A
:10087000F8E06F9FB0011124655A7E4F88E791E040
:100880000E94E10540E06EEB88E791E00E9483055D
:10089000809144019091450101967AC088E791E0EA
:1008A0000E94C505F80181938F01F1E007351F070C
:1008B000A9F7A0905A01B12C8501000F111F000F5C
:1008C000111F0A5B1E4F60914F0170E0762F662763
:1008D00080914E01680F711D882777FD8095982FB4
:1008E0000E94811120E030E040E85DE30E94351273
:1008F000F801608371838283938320914A01309150
:100900004B0140914C0150914D0160914601709115
:10091000470180914801909149010E947D106B012F
:100920007C0120E030E0A9010E943112A70196016C
:1009300018160CF050582093380130933901409329
:100940003A0150933B0160913E0170913F018091CB
:100950004001909141010E947E1060933E0170938E
:100960003F01809340019093410180913C0190911F
:100970003D01019690933D0180933C01FFEFAF1A3A
:10098000BF0A21E0A222BB24A0925A0181E090E09C
:1009900090934501809344010F900F900F900F901A
:1009A000DF91CF911F910F91FF90EF90DF90CF904B
:1009B000BF90AF909F908F907F906F905F904F907F
:1009C00008956AE088E791E00C941B06FF920F936C
:1009D0001F93CF93DF93FC010081C181D281F894F2
:1009E0008981F02EF0948F21898378941DE711502E
:1009F00029F182E090E00E94560888818023B9F3B3
:100A0000F8948A818F218A838981802B89837894C5
:100A100080EE91E00E945608F89489818F218983A5
:100A200086E490E00E9456088881802311E009F056
:100A300010E078948AE991E00E945608812FDF91B6
:100A4000CF911F910F91FF9008951F93CF93DF9344
:100A5000FC011081C181D281912F909560FF12C05D
:100A6000F8948A8189238A838981812B89838AE00A
:100A700090E00E9456088A81812B8A83789487E3CC
:100A800090E011C0F8948A8189238A838981812B1F
:100A9000898381E490E00E9456088A81812B8A83B1
:100AA000789485E090E0DF91CF911F910C945608E7
:100AB0000F931F93CF93DF93FC011081C181D281EB
:100AC000F8948981812B89838A81012F0095802365
:100AD0008A8383E090E00E9456088981802389837D
:100AE0008AE090E00E945608C881789485E390E0FF
:100AF0000E9456081C2381E009F480E0DF91CF9129
:100B00001F910F910895CF92DF92EF92FF920F9372
:100B10001F93CF93DF931F92CDB7DEB76C01E62E04
:100B200008E010E0FF24F39461E09F2D9E2109F47A
:100B300060E0C60149830E942505FF0C01501109A0
:100B400049810115110581F7411115C0F894D601AD
:100B50001196ED91FC91129791818C91809589234A
:100B600081831196ED91FC91129792818C918095E1
:100B70008923828378940F90DF91CF911F910F91F9
:100B8000FF90EF90DF90CF900895EF92FF920F9338
:100B90001F93CF93DF938C01C8E0D0E0F12CEE24BB
:100BA000E394C8010E9458058111FE28EE0C21979C
:100BB000C1F78F2DDF91CF911F910F91FF90EF9093
:100BC0000895CF92DF92FF920F931F93CF93DF93FD
:100BD0001F92CDB7DEB78C01F62E40E065E5798334
:100BE0000E948305CF2C7981D72E88E0F82EF6015C
:100BF00061916F0140E0C8010E948305FA94B9F742
:100C00000F90DF91CF911F910F91FF90DF90CF90C8
:100C10000895FC0113861586148627E030E0DF0175
:100C2000A20FB31F13961C922115310519F0215004
:100C30003109F5CF08951F93CF93DF93EC01162F61
:100C400060E0812F0E941D07612F70E0FB01E851D9
:100C5000FE4FE491E883FB01EA5FFD4FE491F0E091
:100C6000EE0FFF1FEC5DFD4F859194919A83898370
:100C7000CE01DF91CF911F910C940906AF92BF92E4
:100C8000CF92DF92EF92FF920F931F93CF93DF9358
:100C90001F92CDB7DEB75C01D62EE72EFC0185850D
:100CA00081115DC0C5010E94E604811105C0F501F6
:100CB0001386158614866CC040E060EFC5010E9463
:100CC000830501E0F12CC12C11E0C5010E945805FB
:100CD000682FC50169830E9458056981613019F444
:100CE0008130B9F433C02F2D30E068131BC0F501FB
:100CF0008385181730F4E20FF31F8381802349F4B2
:100D000002C0181731F060E0193058F4F50114876B
:100D100008C0F501EF0DF11D8381802B838361E015
:100D200009C0C12EF501E20FF31F8381902F90952A
:100D300089238383C5010E9425051F5F000F11F4DD
:100D4000F39401E0F7E0FF1508F0BFCF113438F05D
:100D5000F501C386C11009C081E0858706C0F50191
:100D600013861586148680E013C0F50183818823DD
:100D7000B1F3ED2DFE2D80E090E0D501A80FB91F55
:100D800013962C912193019688309105B1F781E05B
:100D90000F90DF91CF911F910F91FF90EF90DF9017
:100DA000CF90BF90AF900895DC0180E0615038F0A3
:100DB000ED91E827F0E0E653FF4F8491F7CF0895D7
:100DC00090E0FC013197EF30F105B0F5EA5AFF4FA2
:100DD0000C94BE12809180008F7703C080918000B8
:100DE0008F7D80938000089580918000877FF9CF68
:100DF00084B58F7702C084B58F7D84BD08958091BE
:100E000090008F7707C0809190008F7D03C0809104
:100E10009000877F8093900008958091C0008F7725
:100E200003C08091C0008F7D8093C00008958091A1
:100E3000C200877F8093C2000895CF93DF9390E034
:100E4000FC01E851FE4F2491FC01EA5FFD4F8491C3
:100E5000882349F190E0880F991FFC01E05CFD4F69
:100E6000A591B4918E5C9D4FFC01C591D4919FB723
:100E7000611108C0F8948C91209582238C9388810D
:100E800082230AC0623051F4F8948C91322F30954D
:100E900083238C938881822B888304C0F8948C915F
:100EA000822B8C939FBFDF91CF9108950F931F9357
:100EB000CF93DF931F92CDB7DEB7282F30E0F90133
:100EC000E653FE4F8491F901E851FE4F1491F90168
:100ED000EA5FFD4F04910023C9F0882321F0698364
:100EE0000E94E0066981E02FF0E0EE0FFF1FEE5C4C
:100EF000FD4FA591B4919FB7F8948C91611103C0F7
:100F00001095812301C0812B8C939FBF0F90DF919F
:100F1000CF911F910F910895CF93DF93282F30E049
:100F2000F901E653FE4F8491F901E851FE4FD49147
:100F3000F901EA5FFD4FC491CC2391F081110E9429
:100F4000E006EC2FF0E0EE0FFF1FEC5DFD4FA591EA
:100F5000B4912C912D2381E090E021F480E002C037
:100F600080E090E0DF91CF9108951F920F920FB62D
:100F70000F9211242F933F938F939F93AF93BF931F
:100F80008091870190918801A0918901B0918A0197
:100F90003091860123E0230F2D3720F40196A11D07
:100FA000B11D05C026E8230F0296A11DB11D209397
:100FB00086018093870190938801A0938901B09363
:100FC0008A0180918B0190918C01A0918D01B0914B
:100FD0008E010196A11DB11D80938B0190938C0110
:100FE000A0938D01B0938E01BF91AF919F918F918E
:100FF0003F912F910F900FBE0F901F9018952FB714
:10100000F894609187017091880180918901909195
:101010008A012FBF08953FB7F89480918B0190917A
:101020008C01A0918D01B0918E0126B5A89B05C0C1
:101030002F3F19F00196A11DB11D3FBF6627782FE4
:10104000892F9A2F620F711D811D911D42E0660F3D
:10105000771F881F991F4A95D1F70895CF92DF9285
:10106000EF92FF92CF93DF936B017C010E940B08FC
:10107000EB01C114D104E104F10489F00E94B60827
:101080000E940B086C1B7D0B683E734090F381E05F
:10109000C81AD108E108F108C851DC4FEACFDF9146
:1010A000CF91FF90EF90DF90CF900895019739F0A6
:1010B000880F991F880F991F02970197F1F70895DC
:1010C000789484B5826084BD84B5816084BD85B523
:1010D000826085BD85B5816085BDEEE6F0E08081EA
:1010E00081608083E1E8F0E010828081826080830B
:1010F000808181608083E0E8F0E08081816080838E
:10110000E1E9F0E08081826080838081816080837A
:10111000E0E9F0E0808181608083E1ECF0E08081B3
:10112000846080838081826080838081816080830D
:10113000E3ECF0E0808181608083E0ECF0E080818E
:1011400082608083E2ECF0E0808181608083EAE766
:10115000F0E08081846080838081826080838081F0
:101160008160808380818068808308950895CF9214
:10117000DF92EF92FF920F931F93CF93DF936C0157
:101180007A01EB01E60EF71E00E010E0CE15DF0558
:1011900061F06991D601ED91FC910190F081E02D13
:1011A000C6010995080F191FF1CFC801DF91CF9132
:1011B0001F910F91FF90EF90DF90CF9008956115F0
:1011C000710581F0DB010D900020E9F7AD01415080
:1011D0005109461B570BDC01ED91FC910280F38114
:1011E000E02D099480E090E008950C94DF08DC0184
:1011F000ED91FC910190F081E02D09940F931F93E4
:10120000CF93DF93EC016DE00E94F7088C016AE058
:10121000CE010E94F708800F911FDF91CF911F919F
:101220000F9108958F929F92AF92BF92CF92DF92CB
:10123000EF92FF920F931F93CF93DF93CDB7DEB75B
:10124000A1970FB6F894DEBF0FBECDBF7C01C42EB0
:10125000E52FCB01D22E19A221E02D1510F02AE0A6
:10126000D22E8E010F5D1F4F8D2C912CA12CB12CF5
:101270006C2D7E2FA50194010E949C128C2DD29E74
:1012800080191124015011098A3014F4805D01C0C5
:10129000895CF8018083211531054105510521F054
:1012A000C22EE32FCA01E4CFB801C7010E94DF08B4
:1012B000A1960FB6F894DEBF0FBECDBFDF91CF91E0
:1012C0001F910F91FF90EF90DF90CF90BF90AF9064
:1012D0009F908F900895CF92DF92EF92FF920F939D
:1012E0001F93CF93DF93EC016A017B012115310538
:1012F00079F4E881F9810190F081E02D642FDF918C
:10130000CF911F910F91FF90EF90DF90CF900994B4
:101310002A303105E9F477FF1AC06DE20E94F70820
:101320008C0144275527BA014C195D096E097F09C4
:101330002AE0CE010E941209800F911FDF91CF9108
:101340001F910F91FF90EF90DF90CF9008952AE0CA
:10135000B701A601CE01DF91CF911F910F91FF90B0
:10136000EF90DF90CF900C9412094F925F926F92A2
:101370007F928F929F92AF92BF92CF92DF92EF9225
:10138000FF920F931F93CF93DF93EC016A017B01D0
:10139000B22E9A01AB01C701B6010E9498128823B0
:1013A00019F06CE071E027C026013701E89477F866
:1013B0002FEF3FEF4FE75FE7C301B2010E949812A2
:1013C00081110DC02FEF3FEF4FE75FE7C301B2017F
:1013D0000E94E21018161CF460E171E00CC02FEFBF
:1013E0003FEF4FE75FE4C701B6010E9431121816C4
:1013F000ACF464E171E0CE01DF91CF911F910F91C8
:10140000FF90EF90DF90CF90BF90AF909F908F9024
:101410007F906F905F904F900C94DF082FEF3FEF1D
:101420004FE75FECC701B6010E94E21087FDE1CFF4
:1014300020E030E0A901C701B6010E94E21087FF59
:101440000AC06DE2CE010E94F7088C01F7FAF09411
:10145000F7F8F09402C000E010E0A12C60E070E02A
:1014600080E09FE3AB1441F020E030E040E251E443
:101470000E94E610A394F6CF9B01AC01C701B60110
:101480000E947E106B017C010E9453112B013C01D4
:101490000E947F119B01AC01C701B6010E947D1023
:1014A0006B017C012AE0B301A201CE010E94120966
:1014B000080F191FBB2039F068E171E0CE010E94CE
:1014C000DF08080F191F7B2C772041F120E030E066
:1014D00040E251E4C701B6010E9435126B017C0164
:1014E0000E944E114B01AA2497FCA094BA2C2AE02A
:1014F00030E0B501A401CE010E946B09080F191F4D
:10150000C501B4010E9481119B01AC01C701B60164
:101510000E947D106B017C017A94D6CFC801DF91C7
:10152000CF911F910F91FF90EF90DF90CF90BF90E0
:10153000AF909F908F907F906F905F904F900895A5
:101540000C94B50908950E9460080E94A20A8FEDCC
:1015500091E00E941C0F0E941902C0E0D0E00E949E
:101560003C022097E1F30E940000F9CFCF93DF9374
:101570001F92CDB7DEB76983DC01ED91FC9102804B
:10158000F381E02D41E050E0BE016F5F7F4F099590
:101590000F90DF91CF910895CF93DF93EC018C856D
:1015A0009D8597FF05C082E00E94670C9D878C8710
:1015B0008C859D85DF91CF91089583E00C94BC0EBE
:1015C000FC018485958597FD06C082E00E940F0C82
:1015D00090E00196089582E00E940F0C90E008953B
:1015E000FC018485958597FD05C02FEF3FEF35877A
:1015F0002487089582E00C94670CCF93DF93EC016D
:1016000080910701882331F083E00E94980C18161E
:10161000190634F081E090E09B838A8380E090E0BB
:10162000DF91CF910895FC0120812E5F208342E459
:1016300050E06EE472E080E80C94330DFC0181818F
:101640009081913A59F4813209F03CC047E050E072
:1016500060E071E080E00E94330D43C0913291F56B
:10166000803239F467E070E080E091E00E94640D20
:1016700006C0823209F035C08281809307018091D3
:10168000000190910101A0910201B0910301803B02
:101690009440A105B105C1F48091070180FD14C0FB
:1016A00087E797E790930108809300082BE088E193
:1016B00090E00FB6F894A895809360000FBE209339
:1016C00060000FC080E0089588E10FB6F894809321
:1016D0006000109260000FBEA89510920108109251
:1016E000000881E008952FEF3FEFFC013587248744
:1016F0000895109292011092910188EE93E0A0E07B
:10170000B0E08093930190939401A0939501B093DE
:1017100096018EE191E09093900180938F018FEF7D
:101720009FEF90939C0180939B0108954091E3016A
:101730005091E4012091E1013091E20142175307F9
:10174000B4F49091E8009570E1F39091E80092FD77
:1017500019C08093F1008091E3019091E40101961A
:101760008F739927892B19F48EEF8093E80080916D
:10177000E3019091E40101969093E4018093E301E9
:1017800081E0089580E00895CF92DF92FF920F9359
:101790001F93CF93DF931F92CDB7DEB7082F162F7D
:1017A000862F880F8E5F99830E94960B83E00E949C
:1017B000960BF02EC02E9981D92E8C2D8F19811762
:1017C00078F4F60184910E94960B082F80E00E9425
:1017D000960B8023FFEFCF1ADF0A8111EECF01C0F5
:1017E00081E00F90DF91CF911F910F91FF90DF90DB
:1017F000CF900895615030F02091F100FC012083DA
:101800000196F8CF289884E68093E60108952FB7D3
:10181000FC012083F89467706093E9000895CF93EA
:10182000DF931F92CDB7DEB7682FCE0101960E94DD
:10183000070C8091F20099819FBF0F90DF91CF91AB
:101840000895FF920F931F93CF93DF9300D0CDB7EE
:10185000DEB7F62E8A019091E501992311F057FF2A
:1018600003C08FEF9FEF2BC0682FCE0101967A83C4
:101870000E94070C8091F20090E0A8017A81801705
:1018800091070CF4AC01EF2DF72FF40E84E6FE1651
:1018900039F028988093E6019091F1009193F7CF69
:1018A0004115510521F08091F200882321F08981B2
:1018B0008FBFCA0104C08BE68093E800F8CF0F9079
:1018C0000F90DF91CF911F910F91FF900895CF93CB
:1018D000DF931F92CDB7DEB741E050E0BE016F5FEE
:1018E0007F4F0E94210C019719F4898190E002C07A
:1018F0008FEF9FEF0F90DF91CF910895CF93DF93FC
:101900001F92CDB7DEB7682FCE0101960E94070C5B
:101910009091E800892F807295FF04C09091F200A9
:1019200080E4891B99819FBF0F90DF91CF9108952B
:101930006F927F928F929F92AF92BF92CF92DF92DF
:10194000EF92FF920F931F93CF93DF931F92CDB728
:10195000DEB7782E7B01C42EB52E8091E501882359
:1019600069F0042F152F8AEFD82E872D8072982EBC
:101970009AE3A92E872D8074882E11C08FEF9FEFD8
:1019800057C0872D0E947E0C682E81110CC0DA94FE
:10199000A9F361E070E080E090E00E942E0801155C
:1019A000110579F73BC0282F30E0021713070CF41C
:1019B000602E672DCE0101960E94070C8091E800F1
:1019C00085FF29C0262D30E0021B130B992039F02A
:1019D0006A948FEF6816B1F01092F100F9CFF70119
:1019E000862D77FE07C0815058F094919093F100B6
:1019F0003196F9CF815020F091919093F100FACF78
:101A0000E20EF31E8091E80085FF0FC0011511055D
:101A100011F481100AC089818FBFC1CF5D9884E61F
:101A20008093E7018C2D9B2D03C0A092E800F3CF9B
:101A30000F90DF91CF911F910F91FF90EF90DF906A
:101A4000CF90BF90AF909F908F907F906F900895B0
:101A50001092E9001092E4011092E3019093E201E8
:101A60008093E1010895CF92DF92FF920F931F932D
:101A7000CF93DF9300D0CDB7DEB7F82E8A016B018C
:101A800001151105B1F0F601F7FE02C0849101C005
:101A9000808149835A830E94960B01501109FFEF00
:101AA000CF1ADF0A49815A818111EACF8FEF9FEF68
:101AB00001C0CA010F900F90DF91CF911F910F913C
:101AC000FF90DF90CF9008951F93CF93DF931F92E5
:101AD000CDB7DEB7162F2091E80022FFFCCF612F93
:101AE00079830E94FA0B8BEF8093E800812F798134
:101AF000972F0F90DF91CF911F910895CF93DF9390
:101B00001F92CDB7DEB71982CE0101960E94130B4A
:101B1000CE0101960E94580F898190E00F90DF91CD
:101B2000CF9108951F920F920FB60F921124EF924A
:101B3000FF920F931F932F933F934F935F936F9356
:101B40007F938F939F93AF93BF93EF93FF93CF9325
:101B5000DF93CDB7DEB76297DEBFCDBF1092E9004D
:101B60008091E80083FFEBC068E0CE010A960E94F6
:101B7000FA0B82EF8093E8009A8597FF05C0809169
:101B8000E80080FFFCCF03C08EEF8093E800892F30
:101B9000807609F0B9C08B85811105C01092F100E3
:101BA0001092F100C5C0282F2D7F213009F4C0C04C
:101BB000853049F48091E80080FFFCCF8C858068F7
:101BC0008093E300B5C0863009F076C02D85E888A3
:101BD000F988223071F580E090E02A8B0E94280D70
:101BE0000E947E0D99E08E010F5F1F4FF801392F83
:101BF00011923A95E9F799832A892A8391E09E8385
:101C000090E898879AEF99872091E3013091E40159
:101C1000275F3F4F3C832B838D83C7010E94280D94
:101C200049E050E0B80180E00E94330D0E947E0D33
:101C30007FC0C7012A8B0E94280D2A89223241F4D5
:101C400082E290E00E94630F892B09F071C074C09A
:101C5000213069F488899989089711F42093E0016B
:101C60008091E001811118C067EA72E01AC0233048
:101C700009F062C08C85882391F0823021F460E104
:101C800085EC92E006C0813009F056C06BE089EB2C
:101C900092E00E94C40B4AC065E972E002C066EDA2
:101CA00072E06115710509F447C0FB01449150E0F1
:101CB00080E80E94330D3CC0873009F43DC0883075
:101CC00021F481E08093F10033C0893089F593706D
:101CD00099F5E1E9F2E081E021E096E38093E90003
:101CE0002093EB0034913093EC009093ED008F5FE4
:101CF0003196853099F78EE78093EA001092EA00DA
:101D00008C858093E50114C0888999890E94280DEB
:101D10008E85811105C0CE010A960E941E0B06C059
:101D2000823051F4CE010A960E948B0F882321F055
:101D30008EEF8093E80003C081E28093EB0062960F
:101D40000FB6F894DEBF0FBECDBFDF91CF91FF91EC
:101D5000EF91BF91AF919F918F917F916F915F9123
:101D60004F913F912F911F910F91FF90EF900F9006
:101D70000FBE0F901F9018958093E9008091F2009C
:101D8000882319F08AE38093E80008951F920F9248
:101D90000FB60F9211242F933F934F935F936F933E
:101DA0007F938F939F93AF93BF93EF93FF93809114
:101DB000E1001092E10083FF0FC01092E90091E072
:101DC0009093EB001092EC0092E39093ED00109250
:101DD000E50198E09093F00082FF1DC083E00E942F
:101DE000BC0E8091E701882339F08091E701815092
:101DF0008093E701882369F08091E601882359F0F8
:101E00008091E60181508093E601811104C0289AF7
:101E100002C05D9AF1CFFF91EF91BF91AF919F9179
:101E20008F917F916F915F914F913F912F910F9083
:101E30000FBE0F901F9018951092E50181E08093DE
:101E4000D70080EA8093D80082E189BD09B400FE02
:101E5000FDCF61E070E080E090E00E942E0880E914
:101E60008093D8008CE08093E2001092E000559AB5
:101E7000209A0895FF920F931F93CF93DF93EC0165
:101E8000F62EE881F9810480F581E02D09958C0119
:101E9000E881F9810680F781E02D6F2DCE0109954B
:101EA000C8019927DF91CF911F910F91FF9008955D
:101EB000FC0120812F5F208349E150E06AE573E057
:101EC00080E80C94330D45E650E063E773E080E86A
:101ED0000C94330DEF92FF920F931F93CF93DF93E8
:101EE0001F92CDB7DEB789838B017A0141E050E0C4
:101EF000BE016F5F7F4F84E00E94980CA701B8017C
:101F000084E40E94980C0F90DF91CF911F910F9164
:101F1000FF90EF900895FC0191818081813A31F426
:101F200081E0913091F0933089F411C0813271F4E5
:101F30009B3021F482818093090105C09A3031F4ED
:101F400082818093080181E00895089580E00895DA
:101F500048E050E082E00C946A0FCF93DF93DC01FD
:101F6000683818F0E8E7E60F25C0E62FF0E067FFD5
:101F700011C0E058F10981E090E001C0880FEA95B6
:101F8000EAF714969C911497982B14969C931497A7
:101F9000E0E010C0E652FD4FE491EE2309F440C0AA
:101FA000E7FF08C014968C911497826014968C9366
:101FB0001497EF7716968C9116978E1741F1179616
:101FC0008C9117978E1719F118968C9118978E1778
:101FD000F1F019968C9119978E17C9F01A968C9179
:101FE0001A978E17A1F01B968C911B978E1779F07C
:101FF00080E090E0ED01C80FD91F2E81211102C0B1
:10200000EE8305C0019686309105A1F709C0BD0198
:102010006C5F7F4FCD010E94A80F81E090E008C067
:1020200081E090E013969C938E93129780E090E06D
:10203000DF91CF910895683818F0E8E7E60F25C0E2
:10204000E62FF0E067FF12C0E058F10921E030E030
:1020500001C0220FEA95EAF72095DC0114963C9125
:102060001497322314963C93E0E00FC0E652FD4FE4
:10207000E491EE2329F1E7FF08C0DC0114962C91CE
:1020800014972D7F14962C93EF7720E030E0EE2309
:1020900051F0DC01A20FB31F16964C9116974E1308
:1020A00002C016961C922F5F3F4F2630310579F7FC
:1020B000BC016C5F7F4F0E94A80F81E090E0089503
:1020C00080E090E00895FC01168217821086118648
:1020D000128613861482BC016C5F7F4F0C94A80F8C
:1020E0001092F4011092EB011092EA018EE291E05D
:1020F0009093E9018093E80108955058BB27AA27DF
:102100000ED075C166D130F06BD120F031F49F3F15
:1021100011F41EF45BC10EF4E095E7FB51C1E92F09
:1021200077D180F3BA17620773078407950718F011
:1021300071F49EF58FC10EF4E0950B2EBA2FA02DF1
:102140000B01B90190010C01CA01A0011124FF2764
:10215000591B99F0593F50F4503E68F11A16F0405F
:10216000A22F232F342F4427585FF3CF469537955E
:102170002795A795F0405395C9F77EF41F16BA0B23
:10218000620B730B840BBAF09150A1F0FF0FBB1FD1
:10219000661F771F881FC2F70EC0BA0F621F731F1A
:1021A000841F48F4879577956795B795F7959E3F77
:1021B00008F0B3CF9395880F08F09927EE0F979505
:1021C00087950895D9D008F481E008950CD00FC107
:1021D00007D140F0FED030F021F45F3F19F0F0C09D
:1021E000511139C1F3C014D198F39923C9F3552380
:1021F000B1F3951B550BBB27AA27621773078407FA
:1022000038F09F5F5F4F220F331F441FAA1FA9F3AF
:1022100033D00E2E3AF0E0E830D091505040E695A1
:10222000001CCAF729D0FE2F27D0660F771F881F02
:10223000BB1F261737074807AB07B0E809F0BB0BF1
:10224000802DBF01FF2793585F4F2AF09E3F510515
:1022500068F0B6C000C15F3FECF3983EDCF38695B2
:1022600077956795B795F7959F5FC9F7880F911D8B
:102270009695879597F90895E1E0660F771F881F77
:10228000BB1F621773078407BA0720F0621B730B2A
:10229000840BBA0BEE1F88F7E095089504D068947C
:1022A000B111D9C00895BCD088F09F5790F0B92FD4
:1022B0009927B751A0F0D1F0660F771F881F991F9B
:1022C0001AF0BA95C9F712C0B13081F0C3D0B1E0AD
:1022D0000895C0C0672F782F8827B85F39F0B93FBD
:1022E000CCF3869577956795B395D9F73EF490959D
:1022F0008095709561957F4F8F4F9F4F0895E8941B
:1023000009C097FB3EF490958095709561957F4F3D
:102310008F4F9F4F9923A9F0F92F96E9BB279395EB
:10232000F695879577956795B795F111F8CFFAF4FB
:10233000BB0F11F460FF1BC06F5F7F4F8F4F9F4F2C
:1023400016C0882311F096E911C0772321F09EE88A
:10235000872F762F05C0662371F096E8862F70E0F0
:1023600060E02AF09A95660F771F881FDAF7880FCA
:102370009695879597F90895990F0008550FAA0B20
:10238000E0E8FEEF16161706E807F907C0F0121688
:102390001306E407F50798F0621B730B840B950B8B
:1023A00039F40A2661F0232B242B252B21F40895E0
:1023B0000A2609F4A140A6958FEF811D811D08957D
:1023C00097F99F6780E870E060E008959FEF80ECE8
:1023D000089500240A94161617061806090608958B
:1023E00000240A9412161306140605060895092EF1
:1023F0000394000C11F4882352F0BB0F40F4BF2B60
:1024000011F460FF04C06F5F7F4F8F4F9F4F08959F
:1024100057FD9058440F551F59F05F3F71F0479595
:10242000880F97FB991F61F09F3F79F0879508957A
:10243000121613061406551FF2CF4695F1DF08C099
:10244000161617061806991FF1CF869571056105B6
:1024500008940895E894BB2766277727CB0197F95E
:1024600008958ADF08F48FEF08950BD0C0CFB1DF55
:1024700028F0B6DF18F0952309F0A2CFA7CF1124DA
:10248000EACFC6DFA0F3959FD1F3950F50E0551F1B
:10249000629FF001729FBB27F00DB11D639FAA27B9
:1024A000F00DB11DAA1F649F6627B00DA11D661F08
:1024B000829F2227B00DA11D621F739FB00DA11D29
:1024C000621F839FA00D611D221F749F3327A00DE3
:1024D000611D231F849F600D211D822F762F6A2F7F
:1024E00011249F5750408AF0E1F088234AF0EE0F04
:1024F000FF1FBB1F661F771F881F91505040A9F711
:102500009E3F510570F05CCFA6CF5F3FECF3983E45
:10251000DCF3869577956795B795F795E7959F5F77
:10252000C1F7FE2B880F911D9695879597F9089511
:1025300023DF880B990B0895A1E21A2EAA1BBB1B5F
:10254000FD010DC0AA1FBB1FEE1FFF1FA217B3077F
:10255000E407F50720F0A21BB30BE40BF50B661F95
:10256000771F881F991F1A9469F760957095809559
:1025700090959B01AC01BD01CF010895EE0FFF1FA7
:0C2580000590F491E02D0994F894FFCF31
:10258C0000E100000000000001012C006E616E00F3
:10259C00696E66006F7666002E0000000000B60AB9
:1025AC00FD0AE00AF00ACC0ADD0A000000003A0F2E
:0825BC00B708AD0F1B106310FE
:00000001FF
